:100000006FC2000080C200007EC200007CC20000FF
:100010007AC2000078C2000076C2000074C20000FC
:1000200072C2000070C200006EC200006CC200000C
:100030006AC2000068C2000066C2000064C200001C
:1000400062C2000060C200005EC200005CC200002C
:100050005AC2000058C2000056C2000054C200003C
:1000600052C2000050C200004EC200004CC200004C
:100070004AC2000048C2000046C2000044C200005C
:1000800042C2000040C200003EC200003CC200006C
:100090003AC2000038C2000036C2000034C200007C
:1000A00032C2000030C200002EC200000001040570
:1000B0000607252423222120FFFFFFFFFFFFFFFF6C
:1000C000FFFFFFFFFFFFFFFFFFFFFFFFFFFFFFFF40
:1000D000FFFFFFFFFFFFFFFFFFFFFFFFFFFFFFFF30
:1000E000FFFFFFFFFFFFFFFFFFFFFFFFFFFFFFFF20
:1000F000FFFFFFFFFFFFFFFFFFFFFFFFFFFFFFFF10
:10010000FFFFFFFFFFFFFFFFFFFFFFFFFFFFFFFFFF
:10011000FFFFFFFFFFFFFFFFFF0701C1FFFFFFFF23
:10012000FFFFFFFFFFFFFFFFFFC7C7C7FFFFFFFF87
:10013000FFFFFFFFFFFFFFFFFFC7C7C7F9D6BEDB0B
:10014000ADDBB9FFFFFFFFFFFFC7C7C7F6AABD556D
:10015000555557FFFFFFFFFFFFC7C7C7F6AA7DD75B
:10016000555173FFFFFFFFFFFFC7C7C7F6AABCD7F4
:10017000555577FFFFFFFFFFFFC7C7C7F5AABDD7DC
:10018000555577FFFFFFFFFFFFC7C7C7FABABDD7B7
:1001900076B579FFFFFFFFFFFFE7C7CFFFFFFFFF48
:1001A000FFFFFFFFFFFFFFFFFFE3C78FFFFFFFFF23
:1001B000FFFFFFFFFFFFFFFFFFF1C71FFFFFFFFF75
:1001C000FFFFFFFFFFFFFFFFFFFC007FFBBAEB5BC2
:1001D0006D7CADDDDDC9FFFFFFFFC7FFF555555550
:1001E000457BAAAAA8BAFFFFFFFFC7FFF7555555E1
:1001F0006D4DAAAABD9AFFFFFFFFC7FFF7555555E2
:100200006D7EA99ABDBAFFFFFFFFC7FFF555555593
:100210006D7EABBABDBAFFFFFFFFC7FFFBB75DB591
:1002200076F9DBBDBEC9FFFFFFFFC7FFFFFFFFFF82
:10023000FDFFFFFFFFFFFFFFFFFF01FFFFFFFFFFCE
:10024000FBFFFFFFFFFFFFFFFFFFFFFFFFFFFFFFC2
:10025000FFFFFFFFFFFFFFFFFFFFFFFFFFFFFFFFAE
:10026000FFFFFFFFFFFFFFFFFFFFFFFFFFFFFFFF9E
:10027000FFFFFFFFFFFFFFFFFFFFFFFFFFFFFFFF8E
:10028000FFFFFFFFFFFFFFFFFFFFFFFFFFFFFFFF7E
:10029000FFFFFFFFFFFFFFFFFFFFFFFFFFFFFFFF6E
:1002A000FFFFFFFFFFFFFFFFFFFFFFFFFFFFFFFF5E
:1002B000FFFFFFFFFFFFFFFF000000000000000046
:1002C000002F000000000700070000147F147F14B7
:1002D00000242A7F2A12006264081323003649553D
:1002E000225000000503000000001C224100000015
:1002F00041221C000014083E08140008083E0808AB
:10030000000000A060000008080808080000606005
:100310000000002010080402003E5149453E000044
:10032000427F4000004261514946002141454B3126
:10033000001814127F10002745454539003C4A49F2
:100340004930000171090503003649494936000664
:100350004949291E000036360000000056360000CC
:100360000008142241000014141414140000412247
:10037000140800020151090600324959513E007C1F
:100380001211127C007F49494936003E4141412209
:10039000007F4141221C007F49494941007F0909F2
:1003A0000901003E4149497A007F0808087F0000A2
:1003B000417F4100002040413F01007F081422415D
:1003C000007F40404040007F020C027F007F040815
:1003D000107F003E4141413E007F09090906003E71
:1003E0004151215E007F091929460046494949319A
:1003F0000001017F0101003F4040403F001F2040BD
:10040000201F003F4038403F00631408146300077A
:100410000870080700615149454300007F414100D1
:1004200000552A552A55000041417F000004020171
:10043000020400404040404000000102040000204F
:1004400054545478007F484444380038444444208D
:1004500000384444487F00385454541800087E093A
:1004600001020018A4A4A47C007F08040478000002
:10047000447D4000004080847D00007F10284400BF
:100480000000417F4000007C04180478007C0804D0
:10049000047800384444443800FC2424241800180C
:1004A000242418FC007C08040408004854545420F8
:1004B00000043F444020003C4040207C001C204081
:1004C000201C003C4030403C004428102844001CC4
:1004D000A0A0A07C004464544C44141414141414BC
:1004E00011241FBECFEFDAE0DEBFCDBF11E0A0E0E8
:1004F000B1E0E4EBFCE002C005900D92AA30B10738
:10050000D9F74BD3D5C37CCD1F93CF93DF93EC01A9
:10051000162FDBD260E0CE01FED2612FCE01FBD2DE
:10052000CE01DF91CF911F9109C3CF93DF93EC01EF
:10053000C3D268E7CE01C1D26EEACE01E5DF65ED38
:10054000CE01E2DF60E8CE01DFDF68EACE01DCDF6A
:100550006FE1CE01D9DF63EDCE01D6DF60E0CE01E1
:10056000D3DF60E4CE01D0DF6DE8CE01CDDF64E102
:10057000CE01CADF60E2CE01C7DF60E0CE01C4DF9A
:1005800061EACE01C1DF68ECCE01BEDF6AEDCE01CB
:10059000BBDF62E0CE01B8DF61E8CE01B5DF6FE816
:1005A000CE01B2DF69EDCE01AFDF61EFCE01ACDF8E
:1005B0006BEDCE01A9DF60E4CE01A6DF64EACE01D7
:1005C000A3DF66EACE01A0DF6EE2CE019DDF6FEA17
:1005D000CE01DF91CF9198CF662311F067EA01C079
:1005E00066EA92CFAF92BF92DF92EF92FF920F93A3
:1005F0001F93CF93DF931F92CDB7DEB75C01F62E2A
:1006000061E2798381DF60E0C5017EDF6FE7C501CC
:100610007BDF62E2C50178DF60E0C50175DF67E07E
:10062000C50172DF0F2D7981172F80E4D82EC50107
:100630004CD260E4C5016FD2E12CF12CF801EE0D33
:10064000FF1D6081C50167D28FEFE81AF80AE0E16B
:10065000EE16F10499F7C50171D2DA94005F1F4FCD
:10066000D110E5CF0F90DF91CF911F910F91FF90A7
:10067000EF90DF90BF90AF90089567FD2EC040329D
:1006800060F5342F369536953695E62FF0E04770B5
:10069000222389F020E8329FE00DF11D1124E80F9C
:1006A000F91F81E090E0042E01C0880F0A94EAF758
:1006B0009081982B11C020E8329FE00DF11D11248C
:1006C000E80FF91F81E090E0042E01C0880F0A9422
:1006D000EAF7809590819823908308955F926F92B6
:1006E0007F928F929F92AF92BF92CF92DF92EF92C2
:1006F000FF920F931F93CF93DF935C014B01542E16
:10070000C22FD0E0279683E0D595C7958A95E1F76B
:100710005E0CC12CD12CF22EF00E90E8692E712CBB
:10072000E51441F1102F812F801B1F15F9F0982F30
:10073000969596959695F601E90FF11DE80DF91D30
:10074000E491F0E08770930102C0359527958A9572
:10075000E2F7E223F323EF2B11F021E001C020E0C8
:100760004E2D612FC50189DF1F5FDDCFE394CC0ED5
:10077000DD1ED6CFDF91CF911F910F91FF90EF90AB
:10078000DF90CF90BF90AF909F908F907F906F90B1
:100790005F9008957F928F929F92AF92BF92CF9277
:1007A000DF92EF92FF920F931F93CF93DF936C0131
:1007B000842E722E605226E0629F7001112400E0A8
:1007C00010E0C70188549D4F7C01F701E00FF11F35
:1007D000A490C0E0D0E0B12C982C900E4C2F470D87
:1007E000C5010C2E02C0959587950A94E2F780FF0B
:1007F00002C021E001C020E0692DC6013EDF219644
:10080000C830D10559F70F5F1F4F06301105E9F6C3
:10081000DF91CF911F910F91FF90EF90DF90CF90DC
:10082000BF90AF909F908F907F900895CF92DF926E
:10083000FF920F931F93CF93DF931F92CDB7DEB735
:100840008C01342FF22E6B01F60161916F0166234A
:1008500041F02F2D432FC80139839CDF39813A5F46
:10086000F3CF0F90DF91CF911F910F91FF90DF9009
:10087000CF900895AF92BF92CF92DF92EF92FF9206
:100880000F931F93CF93DF938C017B01C0E0D0E0E7
:10089000A12C20E8C22ED12CB12C8B2D86958695CB
:1008A0008695FE01E80FF11DEE0DFF1DE491F0E0CD
:1008B0008B2D8770960102C0359527958A95E2F7B2
:1008C000E223F323EF2B11F021E001C020E04A2DB9
:1008D0006B2DC801D2DEB39430E8B312DECFA394FF
:1008E000609680E4A812D8CFDF91CF911F910F912D
:1008F000FF90EF90DF90CF90BF90AF90089567FD8D
:1009000019C04032B8F4E42FE695E695E69520E864
:10091000E29FF0011124E60FF11DE80FF91F477067
:1009200081E090E0042E01C0880F0A94EAF79081DC
:10093000982B90830895EF92FF920F931F93CF937C
:10094000DF931F92CDB7DEB77C01062F240F142F43
:10095000121741F0412F602FC7012983D0DF1F5F9D
:100960002981F6CF0F90DF91CF911F910F91FF90CA
:10097000EF900895EF92FF920F931F93CF93DF9321
:100980001F92CDB7DEB77C01042F260F162F12174A
:1009900041F0402F612FC7012983B1DF1F5F2981FB
:1009A000F6CF0F90DF91CF911F910F91FF90EF90B5
:1009B0000895CF92DF92EF92FF920F931F93CF9300
:1009C000DF93EC01F62E142FC22EE22EE61AE394EA
:1009D000D02ED41A2E2DCEDF2E2D402F6F2DCE01EE
:1009E000C9DF2D2D412F6F2DCE01A5DF2D2D412FDC
:1009F0006C2DCE01DF91CF911F910F91FF90EF9061
:100A0000DF90CF9098CF7F928F929F92AF92BF92BC
:100A1000CF92DF92EF92FF920F931F93CF93DF93CA
:100A20006C01962E842EE11002C0C3DF1DC02F5F23
:100A3000261B041BC0E0D0E0A22EB12C10E0CA158A
:100A4000DB0594F4E12CF12C7C2E790C0E151F059E
:100A50004CF0482D4E0D672DC60151DF8FEFE81A7F
:100A6000F80AF4CF2196EBCFDF91CF911F910F9130
:100A7000FF90EF90DF90CF90BF90AF909F908F90BE
:100A80007F90089520E030E0FC011192CF012F5FAC
:100A90003F4F2115F2E03F07B9F70895CF93DF9359
:100AA000EC019C5F42DDCE01DF91CF91EBCF9C5FEB
:100AB00093CDBC019C5F96CD0895FC01608310929C
:100AC000B90088E48093B8000895FC0184EA80931B
:100AD000BC008091BC0087FFFCCF8091B900887F6B
:100AE0008183883021F0803111F081E00895808188
:100AF0008093BB0084E88093BC008091BC0087FF9A
:100B0000FCCF8091B900887F8183883111F08034D7
:100B100061F780E008956093BB0024E82093BC0057
:100B20002091BC0027FFFCCF2091B900287FFC0159
:100B3000218381E0283209F480E0089584E98093DC
:100B4000BC008091BC0084FDFCCF089596E8909392
:100B50007A00982F9072906890937B008F7190919B
:100B60000001892B80937C0086EC80937A00809131
:100B70007A0086FDFCCF809178002091790090E08A
:100B8000922B08958C3030F4E82FF0E0E455FF4FBD
:100B90008491DCCF80E090E00895CF93DF93CDB7D0
:100BA000DEB7C750D4400FB6F894DEBF0FBECDBF3E
:100BB000569A5E9ACE01019671DFE12C00E020E8A2
:100BC00040E468EB70E0CE01019688DDCE0101962D
:100BD00070DFCE01019656DF83E0D4DF6C019C010B
:100BE00083E0369527958A95E1F76CEF620FEE2446
:100BF000E3940FE140E0CE01019605DF20E040E004
:100C000061E071E0CE01019611DE4AE050E0BE01E4
:100C10006D5F7B4FC60109D020E046E3BE016D5FEA
:100C20007B4FCE01019602DED1CFFB019F01E894FC
:100C30004230BCF04532ACF44A3029F497FB1EF444
:100C4000909581959F4F642F77271ED0805D8A33C2
:100C50000CF0895D8193CB010097A9F716F45DE252
:100C600051931082C90100C0DC01FC01672F719112
:100C70007723E1F7329704C07C916D937083629182
:100C8000AE17BF07C8F30895AA1BBB1B51E107C0ED
:100C9000AA1FBB1FA617B70710F0A61BB70B881F0C
:100CA000991F5A95A9F780959095BC01CD0108959B
:040CB000F894FFCFE6
:0A0CB4004053756E6C6967687400A8
:00000001FF
