:10000000F1C2000016C3000014C3000012C30000B8
:1000100010C300000EC300000CC300000AC30000A0
:1000200008C3000006C3000004C3000002C30000B0
:1000300000C30000FEC20000FCC20000FAC20000C3
:10004000F8C20000F7C20000F4C20000F2C20000D3
:10005000F0C20000EEC20000ECC20000EAC20000E4
:10006000E8C20000E6C20000E4C20000E2C20000F4
:10007000E0C20000DEC20000DCC20000DAC2000004
:10008000D8C20000D6C20000D4C20000D2C2000014
:10009000D0C20000CEC20000CCC20000CAC2000024
:1000A000C8C20000C6C20000C4C2000000010405AE
:1000B0000607252423222120FFFFFFFFFFFFFFFF6C
:1000C000FFFFFFFFFFFFFFFFFFFFFFFFFFFFFFFF40
:1000D000FFFFFFFFFFFFFFFFFFFFFFFFFFFFFFFF30
:1000E000FFFFFFFFFFFFFFFFFFFFFFFFFFFFFFFF20
:1000F000FFFFFFFFFFFFFFFFFFFFFFFFFFFFFFFF10
:10010000FFFFFFFFFFFFFFFFFFFFFFFFFFFFFFFFFF
:10011000FFFFFFFFFFFFFFFFFF0701C1FFFFFFFF23
:10012000FFFFFFFFFFFFFFFFFFC7C7C7FFFFFFFF87
:10013000FFFFFFFFFFFFFFFFFFC7C7C7F9D6BEDB0B
:10014000ADDBB9FFFFFFFFFFFFC7C7C7F6AABD556D
:10015000555557FFFFFFFFFFFFC7C7C7F6AA7DD75B
:10016000555173FFFFFFFFFFFFC7C7C7F6AABCD7F4
:10017000555577FFFFFFFFFFFFC7C7C7F5AABDD7DC
:10018000555577FFFFFFFFFFFFC7C7C7FABABDD7B7
:1001900076B579FFFFFFFFFFFFE7C7CFFFFFFFFF48
:1001A000FFFFFFFFFFFFFFFFFFE3C78FFFFFFFFF23
:1001B000FFFFFFFFFFFFFFFFFFF1C71FFFFFFFFF75
:1001C000FFFFFFFFFFFFFFFFFFFC007FFBBAEB5BC2
:1001D0006D7CADDDDDC9FFFFFFFFC7FFF555555550
:1001E000457BAAAAA8BAFFFFFFFFC7FFF7555555E1
:1001F0006D4DAAAABD9AFFFFFFFFC7FFF7555555E2
:100200006D7EA99ABDBAFFFFFFFFC7FFF555555593
:100210006D7EABBABDBAFFFFFFFFC7FFFBB75DB591
:1002200076F9DBBDBEC9FFFFFFFFC7FFFFFFFFFF82
:10023000FDFFFFFFFFFFFFFFFFFF01FFFFFFFFFFCE
:10024000FBFFFFFFFFFFFFFFFFFFFFFFFFFFFFFFC2
:10025000FFFFFFFFFFFFFFFFFFFFFFFFFFFFFFFFAE
:10026000FFFFFFFFFFFFFFFFFFFFFFFFFFFFFFFF9E
:10027000FFFFFFFFFFFFFFFFFFFFFFFFFFFFFFFF8E
:10028000FFFFFFFFFFFFFFFFFFFFFFFFFFFFFFFF7E
:10029000FFFFFFFFFFFFFFFFFFFFFFFFFFFFFFFF6E
:1002A000FFFFFFFFFFFFFFFFFFFFFFFFFFFFFFFF5E
:1002B000FFFFFFFFFFFFFFFF000000000000000046
:1002C000002F000000000700070000147F147F14B7
:1002D00000242A7F2A12006264081323003649553D
:1002E000225000000503000000001C224100000015
:1002F00041221C000014083E08140008083E0808AB
:10030000000000A060000008080808080000606005
:100310000000002010080402003E5149453E000044
:10032000427F4000004261514946002141454B3126
:10033000001814127F10002745454539003C4A49F2
:100340004930000171090503003649494936000664
:100350004949291E000036360000000056360000CC
:100360000008142241000014141414140000412247
:10037000140800020151090600324959513E007C1F
:100380001211127C007F49494936003E4141412209
:10039000007F4141221C007F49494941007F0909F2
:1003A0000901003E4149497A007F0808087F0000A2
:1003B000417F4100002040413F01007F081422415D
:1003C000007F40404040007F020C027F007F040815
:1003D000107F003E4141413E007F09090906003E71
:1003E0004151215E007F091929460046494949319A
:1003F0000001017F0101003F4040403F001F2040BD
:10040000201F003F4038403F00631408146300077A
:100410000870080700615149454300007F414100D1
:1004200000552A552A55000041417F000004020171
:10043000020400404040404000000102040000204F
:1004400054545478007F484444380038444444208D
:1004500000384444487F00385454541800087E093A
:1004600001020018A4A4A47C007F08040478000002
:10047000447D4000004080847D00007F10284400BF
:100480000000417F4000007C04180478007C0804D0
:10049000047800384444443800FC2424241800180C
:1004A000242418FC007C08040408004854545420F8
:1004B00000043F444020003C4040207C001C204081
:1004C000201C003C4030403C004428102844001CC4
:1004D000A0A0A07C004464544C44141414141414BC
:1004E0006E616E00696E660000407A10F35A00A0DB
:1004F000724E18090010A5D4E80000E876481700ED
:1005000000E40B54020000CA9A3B000000E1F5052C
:10051000000080969800000040420F000000A08676
:1005200001000000102700000000E80300000000A8
:100530006400000000000A0000000000010000004C
:1005400000002C76D888DC674F0823DFC1DFAE5966
:10055000E1B1B796E5E3E453C63AE651997696E8F9
:10056000E6C28426EB898C9B62ED407C6FFCEFBC7D
:100570009C9F40F2BAA56FA5F490055A2AF75C93A8
:100580006B6CF9676DC11BFCE0E40D47FEF520E6DE
:10059000B500D0ED902E0300943577050080841EC1
:1005A000080000204E0A000000C80C333333330F1C
:1005B000986E12831141EF8D2114893BE65516CFB9
:1005C000FEE6DB18D1844B381BF77C1D901DA4BBC5
:1005D000E424203284725E228100C9F124ECA1E57A
:1005E0003D27780A11241FBECFEFDAE0DEBFCDBF72
:1005F00011E0A0E0B1E0E2E5F3E202C005900D9267
:10060000A433B107D9F716E0A4E3B1E001C01D920D
:10061000A33BB107E1F715E0C4EED5E004C0229793
:10062000FE010E940610C23ED107C9F726D70C94DE
:10063000A711E6CC1F920F920FB60F9211243F9292
:100640004F925F926F927F928F929F92AF92BF92E2
:10065000CF92DF92EF92FF920F931F932F933F93CE
:100660004F935F936F937F938F939F93AF93BF93BA
:10067000CF93DF93EF93FF9383E0F4D69093AE068E
:100680008093AD062091B1063091B206582F492FC4
:100690002817390710F4522F432F5093B106409377
:1006A000B2062091AF063091B006582F492F82171D
:1006B000930710F4522F432F5093AF064093B00688
:1006C000C0918A01EC2FF0E0EE0FFF1FED5CFD4FB3
:1006D00091838083CF5FCC3309F042C003E312E003
:1006E000D12CE12CF12CD0E0F801619171918F01B6
:1006F00080E090E00E94D00E9B01AC016D2D7E2D1C
:100700008F2D9D2F0E94D80DD62EE72EF82ED92F93
:10071000F2E00B3A1F0741F7462F572F682F792F2A
:100720004093840150938501609386017093870103
:10073000C09089010C2D10E0000F111F05541E4FB1
:1007400020E030E040E752E46D2D7E2D0E943C0E0B
:100750000E94A40EF80171836083C394C092890142
:10076000D0918901DC33E1F50BEB11E0C12CD12CE8
:10077000E12CF12CF801619171918F0180E090E002
:100780000E94D00E9B01AC01B601C7010E94D80D9A
:100790006B017C01F2E003331F0761F7AB01BC0181
:1007A0004093840150938501609386017093870183
:1007B000B09088010B2D10E0000F111F05571E4F40
:1007C00020E030E040E752E4B601C7010E943C0E51
:1007D0000E94A40EF80171836083B394B0928801E3
:1007E0002CE38C2F622F0E94C10F592E90938A0107
:1007F0008091880168E10E94C10F992E9093880131
:100800008D2F622F0E94C10F492E909389010BE812
:1008100011E0A12CB12CE12CF12CC0E0D0E0C92CCE
:10082000D12CCC15DD0594F4F801619171918F0103
:1008300080E090E00E94D00E9B01AC01B501C701A1
:100840000E94D80D21965B017C01EBCFC501D70139
:100850008093800190938101A0938201B0938301E2
:100860000BEB11E0712C812CA12CB12CC0E0D0E05D
:10087000E42CF12CCE15DF05A4F4F80161917191FF
:100880008F0180E090E00E94D00E9B01AC01672DAB
:10089000782DC5010E94D80D2196762E872E5C01F9
:1008A000E9CF872D982DD50180937C0190937D0110
:1008B000A0937E01B0937F0183E3A82E82E0B82E3F
:1008C000612C712C812C312CC0E0D0E0052D10E082
:1008D000C017D107ACF4F501219131915F01B90145
:1008E00080E090E00E94D00E9B01AC01B301882D06
:1008F000932D0E94D80D21963B01882E392EE8CFEA
:10090000C301A82DB32D8093780190937901A09312
:100910007A01B0937B01992009F44AC0B601882777
:1009200077FD8095982F0E94D20E9B01AC0160E06C
:1009300070E080E89FE30E943C0E9B01AC01609157
:1009400080017091810180918201909183010E94C8
:100950005E0F609380017093810180938201909378
:10096000830129E838E848E85CE360917C017091F4
:100970007D0180917E0190917F010E945E0F6093C6
:100980007C0170937D0180937E0190937F0124EB25
:1009900032EA41E959E3B301882D932D0E945E0F9D
:1009A000609378017093790180937A0190937B0131
:1009B000442009F451C02CEB3BEB4BE75FE3609123
:1009C00080017091810180918201909183010E9448
:1009D0005E0F6093800170938101809382019093F8
:1009E0008301B701882777FD8095982F0E94D20E4A
:1009F0009B01AC0160E070E080E89FE30E943C0E48
:100A00009B01AC0160917C0170917D0180917E0120
:100A100090917F010E945E0F60937C0170937D0135
:100A200080937E0190937F01911016C029E838E8E9
:100A300048E85CE3609178017091790180917A01D6
:100A400090917B010E945E0F609378017093790111
:100A500080937A0190937B01552009F44FC02CEBD1
:100A60003BEB4BE75FE360918001709181018091E6
:100A70008201909183010E945E0F609380017093C8
:100A8000810180938201909383012CEB3BEB4BE738
:100A90005FE360917C0170917D0180917E01909176
:100AA0007F010E945E0F60937C0170937D018093B3
:100AB0007E0190937F01B801882777FD8095982F5C
:100AC0000E94D20E9B01AC0160E070E080E89FE3E1
:100AD0000E943C0E9B01AC016091780170917901FC
:100AE00080917A0190917B010E945E0F6093780162
:100AF0007093790180937A0190937B0120917C011E
:100B000030917D0140917E0150917F016091800183
:100B10007091810180918201909183010E94D80D92
:100B2000209178013091790140917A0150917B01B7
:100B30000E94D80D609374017093750180937601C3
:100B4000909377018BEA92E00DD46091B106709199
:100B5000B20680E090E00E94D00E6B017C016091B3
:100B6000AD067091AE0680E090E00E94D00EA70125
:100B700096010E94D70D4B015C016091AF06709108
:100B8000B00680E090E00E94D00EA70196010E947E
:100B9000D70D9B01AC01C501B4010E943C0E20E0C1
:100BA00030E040E053E40E945E0F0E94A40E262F26
:100BB000EE24E3940DE14AE160E08BEA92E093D306
:100BC0006091B1067091B20680E090E00E94D00E74
:100BD0006B017C019B01AC01609174017091750106
:100BE0008091760190917701E2D74B015C01609191
:100BF000AF067091B00680E090E00E94D00EA70191
:100C00009601D5D79B01AC01C501B4010E943C0EF1
:100C100020E030E040E053E40E945E0F0E94A40E0A
:100C200028E048E18BEA92E0D7D228E048E160E092
:100C30008BEA92E0B2D228E048E16FE78BEA92E0DB
:100C4000CBD280918A011F928F93809189011F924C
:100C50008F93809188011F928F938091AE068F931E
:100C60008091AD068F9381E091E09F938F9384E50F
:100C700091E09F938F930E942A118091B0068F93E9
:100C80008091AF068F93809177018F938091760149
:100C90008F93809175018F93809174018F938091D0
:100CA000B2068F938091B1068F938DE191E09F936F
:100CB0008F9384E391E09F938F930E942A1120E009
:100CC00040E064E571E08BEA92E0C6D12CE040E0C0
:100CD00064E371E08BEA92E0BFD18BEA92E059D3F2
:100CE0008DB79EB748960FB6F8949EBF0FBE8DBFC6
:100CF000FF91EF91DF91CF91BF91AF919F918F9134
:100D00007F916F915F914F913F912F911F910F9123
:100D1000FF90EF90DF90CF90BF90AF909F908F901B
:100D20007F906F905F904F903F900F900FBE0F900D
:100D30001F9018951F93CF93DF93EC01162F35D397
:100D400060E0CE0158D3612FCE0155D3CE01DF91A3
:100D5000CF911F9163C3CF93DF93EC011DD368E75D
:100D6000CE011BD36EEACE01E5DF65EDCE01E2DFF9
:100D700060E8CE01DFDF68EACE01DCDF6FE1CE01A3
:100D8000D9DF63EDCE01D6DF60E0CE01D3DF60E4D2
:100D9000CE01D0DF6DE8CE01CDDF64E1CE01CADF48
:100DA00060E2CE01C7DF60E0CE01C4DF61EACE01C0
:100DB000C1DF68ECCE01BEDF6AEDCE01BBDF62E0D1
:100DC000CE01B8DF61E8CE01B5DF6FE8CE01B2DF5A
:100DD00069EDCE01AFDF61EFCE01ACDF6BEDCE018F
:100DE000A9DF60E4CE01A6DF64EACE01A3DF66EAF4
:100DF000CE01A0DF6EE2CE019DDF6FEACE01DF9172
:100E0000CF9198CF662311F067EA01C066EA92CFCE
:100E1000AF92BF92DF92EF92FF920F931F93CF9307
:100E2000DF931F92CDB7DEB75C01F62E61E27983C6
:100E300081DF60E0C5017EDF6FE7C5017BDF62E235
:100E4000C50178DF60E0C50175DF67E0C50172DFCD
:100E50000F2D7981172F80E4D82EC501A6D260E42A
:100E6000C501C9D2E12CF12CF801EE0DFF1D608106
:100E7000C501C1D28FEFE81AF80AE0E1EE16F104DD
:100E800099F7C501CBD2DA94005F1F4FD110E5CF9F
:100E90000F90DF91CF911F910F91FF90EF90DF9016
:100EA000BF90AF90089567FD2EC0403260F5342F9B
:100EB000369536953695E62FF0E04770222389F077
:100EC00020E8329FE00DF11D1124E80FF91F81E0A9
:100ED00090E0042E01C0880F0A94EAF79081982BC5
:100EE00011C020E8329FE00DF11D1124E80FF91F19
:100EF00081E090E0042E01C0880F0A94EAF7809503
:100F000090819823908308955F926F927F928F9241
:100F10009F92AF92BF92CF92DF92EF92FF920F9388
:100F20001F93CF93DF935C014B01542EC22FD0E06F
:100F3000279683E0D595C7958A95E1F75E0CC12C7D
:100F4000D12CF22EF00E90E8692E712CE51441F1AF
:100F5000102F812F801B1F15F9F0982F96959695CD
:100F60009695F601E90FF11DE80DF91DE491F0E009
:100F70008770930102C0359527958A95E2F7E223A1
:100F8000F323EF2B11F021E001C020E04E2D612F63
:100F9000C50189DF1F5FDDCFE394CC0EDD1ED6CF08
:100FA000DF91CF911F910F91FF90EF90DF90CF9045
:100FB000BF90AF909F908F907F906F905F900895BB
:100FC0007F928F929F92AF92BF92CF92DF92EF92D9
:100FD000FF920F931F93CF93DF936C01842E722E99
:100FE000605226E0629F7001112400E010E0C7010A
:100FF00088549D4F7C01F701E00FF11FA490C0E0E1
:10100000D0E0B12C982C900E4C2F470DC5010C2E22
:1010100002C0959587950A94E2F780FF02C021E00F
:1010200001C020E0692DC6013EDF2196C830D10500
:1010300059F70F5F1F4F06301105E9F6DF91CF9189
:101040001F910F91FF90EF90DF90CF90BF90AF90E6
:101050009F908F907F900895CF92DF92FF920F9391
:101060001F93CF93DF931F92CDB7DEB78C01342F40
:10107000F22E6B01F60161916F01662341F02F2D75
:10108000432FC80139839CDF39813A5FF3CF0F903A
:10109000DF91CF911F910F91FF90DF90CF90089536
:1010A000AF92BF92CF92DF92EF92FF920F931F9376
:1010B000CF93DF938C017B01C0E0D0E0A12C20E82E
:1010C000C22ED12CB12C8B2D869586958695FE014E
:1010D000E80FF11DEE0DFF1DE491F0E08B2D877000
:1010E000960102C0359527958A95E2F7E223F3230E
:1010F000EF2B11F021E001C020E04A2D6B2DC8013B
:10110000D2DEB39430E8B312DECFA394609680E4CD
:10111000A812D8CFDF91CF911F910F91FF90EF9040
:10112000DF90CF90BF90AF90089567FD19C0403217
:10113000B8F4E42FE695E695E69520E8E29FF00105
:101140001124E60FF11DE80FF91F477081E090E0D0
:10115000042E01C0880F0A94EAF79081982B90839F
:10116000089567FD19C04032B8F4E42FE695E6957E
:10117000E69520E8E29FF0011124E60FF11DE80F4B
:10118000F91F477081E090E0042E01C0880F0A9497
:10119000EAF79081982790830895EF92FF920F933A
:1011A0001F93CF93DF931F92CDB7DEB77C01062F3D
:1011B000240F142F121741F0412F602FC7012983EC
:1011C000B4DF1F5F2981F6CF0F90DF91CF911F9180
:1011D0000F91FF90EF900895EF92FF920F931F935E
:1011E000CF93DF931F92CDB7DEB77C01062F240F7C
:1011F000142F121741F0412F602FC7012983B1DF4F
:101200001F5F2981F6CF0F90DF91CF911F910F9132
:10121000FF90EF900895EF92FF920F931F93CF935B
:10122000DF931F92CDB7DEB77C01042F260F162F58
:10123000121741F0402F612FC701298376DF1F5F0E
:101240002981F6CF0F90DF91CF911F910F91FF90E1
:10125000EF900895EF92FF920F931F93CF93DF9338
:101260001F92CDB7DEB77C01042F260F162F121761
:1012700041F0402F612FC701298373DF1F5F298150
:10128000F6CF0F90DF91CF911F910F91FF90EF90CC
:101290000895CF92DF92EF92FF920F931F93CF9317
:1012A000DF93EC01F62E142FC22EE22EE61AE39401
:1012B000D02ED41A2E2DAFDF2E2D402F6F2DCE0124
:1012C000AADF2D2D412F6F2DCE0167DF2D2D412F50
:1012D0006C2DCE01DF91CF911F910F91FF90EF9078
:1012E000DF90CF905ACF7F928F929F92AF92BF9212
:1012F000CF92DF92EF92FF920F931F93CF93DF93E2
:101300006C01962E842EE11002C0C3DF1DC02F5F3A
:10131000261B041BC0E0D0E0A22EB12C10E0CA15A1
:10132000DB0594F4E12CF12C7C2E790C0E151F05B5
:101330004CF0482D4E0D672DC601F7DE8FEFE81AF1
:10134000F80AF4CF2196EBCFDF91CF911F910F9147
:10135000FF90EF90DF90CF90BF90AF909F908F90D5
:101360007F90089520E030E0FC011192CF012F5FC3
:101370003F4F2115F2E03F07B9F70895CF93DF9370
:10138000EC019C5FE8DCCE01DF91CF91EBCF9C5F5D
:1013900039CDBC019C5F3CCD0895FC016083109267
:1013A000B90088E48093B8000895FC0184EA809332
:1013B000BC008091BC0087FFFCCF8091B900887F82
:1013C0008183883021F0803111F081E0089580819F
:1013D0008093BB0084E88093BC008091BC0087FFB1
:1013E000FCCF8091B900887F8183883111F08034EF
:1013F00061F780E008956093BB0024E82093BC006F
:101400002091BC0027FFFCCF2091B900287FFC0170
:10141000218381E0283209F480E0089584E98093F3
:10142000BC008091BC0084FDFCCF089596E89093A9
:101430007A00982F9072906890937B008F719091B2
:101440000001892B80937C0086EC80937A00809148
:101450007A0086FDFCCF809178002091790090E0A1
:10146000922B08958C3030F4E82FF0E0E455FF4FD4
:101470008491DCCF80E090E00895E12C00E020E84A
:1014800040E468EB70E08BEA92E03EDD8BEA92E0AC
:1014900080DF569A5E9A1092AE061092AD061092B8
:1014A0008A011092890110928801F89410928500A7
:1014B00010928400109280008CE0809381008091D3
:1014C0006F00826080936F0089E698E190938900B5
:1014D000809388007894569A5E9883E0C3DF909357
:1014E000B0068093AF069093B2068093B106FFCF0B
:1014F0008BEA92E043CFA3E1B0E0E0E8FAE04DC52B
:101500007C011B016A01FC0117821682838181FF25
:1015100049C3BE016F5F7F4F4B01F7019381F1011A
:1015200093FD859193FF81911F01882309F436C3B0
:10153000853239F493FD859193FF81911F018532A6
:1015400031F4B70190E054D656016501E6CF10E0C2
:10155000512C20E02032A0F48B3269F030F480323C
:1015600059F0833269F420612CC08D3239F0803318
:1015700039F4216026C02260246023C0286021C085
:1015800027FD27C030ED380F3A3078F426FF06C02B
:10159000FAE01F9F300D1124132F13C06AE0569EEE
:1015A000300D1124532E20620CC08E3221F426FD02
:1015B000F5C2206406C08C3611F4206802C088365B
:1015C00041F4F10193FD859193FF81911F018111F8
:1015D000C1CF9BEB980F933018F42061805E06C05A
:1015E0009BE9980F933008F09AC12F7E26FF16E0F2
:1015F0002F73722E853621F4F22FF0647F2E08C0EF
:10160000863621F4622F6068762E02C011111150C7
:1016100077FE07C01C3348F444244394410E27E06E
:101620000BC0183030F4212F06C027E04CE3442EC5
:1016300003C027E017E0412C560174E0A70EB11C4F
:10164000F6016081718182819381042DA401E2D42D
:101650006C01098100FF02C003FF06C071FC07C0D6
:1016600072FC08C0612C08C03DE2632E05C02BE26D
:10167000622E02C090E2692E802F8C7081F166206C
:1016800011F084E001C083E0851510F0512C0AC0F0
:10169000581A73FC07C0B70180E290E0A9D55A94AC
:1016A000D1F7F4CF662021F0B701862D90E0A0D5C8
:1016B00003FD03C004EE14E002C000EE14E0F72DB9
:1016C000F0717F2EF8018491882309F45EC27110B5
:1016D0008052B70190E08CD50F5F1F4FF3CF77FE9C
:1016E0000FC04C0C04FF04C08A81813309F44A9472
:1016F000141474F5F8E0F41578F588E0482E2CC041
:1017000076FC2AC0812F90E08C159D059CF06CEF33
:10171000C6166FEFD60674F0772D7068772E0AC064
:10172000E2E0F0E0EC0FFD1FE10FF11D808180335E
:1017300019F411501111F4CF77FE0EC044244394D4
:10174000410E812F90E0C816D9062CF41C1904C054
:101750004424439401C010E077FE07C01C141D040C
:101760003CF496012F5F3F4F05C025E030E002C0FA
:1017700021E030E0662011F02F5F3F4F112331F060
:10178000412F50E04F5F5F4F240F351F452D50E034
:101790002417350714F4521A01C0512C872D897073
:1017A00041F4552031F0B70180E290E021D55A9400
:1017B000F8CF662021F0B701862D90E019D573FC93
:1017C00008C0552031F0B70180E390E011D55A945C
:1017D000F8CF77FE5DC09C2D8D2DD7FE02C090E026
:1017E00080E0692E782E40E050E0C601841991090E
:1017F0009D878C87960126193709280D391D812F61
:1018000090E0EE27FF27E81BF90BFF87EE87FFEF3D
:101810006F167F0661F4B7018EE290E02B8B3A8B56
:10182000488B598BE5D4598948893A892B89C61444
:10183000D70454F06C857D85661577052CF4F90185
:10184000E40FF51F818101C080E371E0671A710820
:101850004F5F5F4FEE85FF856E167F0664F0B70120
:1018600090E02B8B3A8B488B598BC2D42B893A89C9
:1018700048895989CCCF6C147D0439F49A81963308
:1018800018F4953311F404FF81E3B70190E045C0EB
:101890008A81813309F00F7EB70190E0A9D411113C
:1018A00005C074FE16C085E490E015C0B7018EE255
:1018B00090E09ED482E066246394680EF401E80F01
:1018C000F11D8081B70190E093D4115051F3862D22
:1018D000F2CF85E690E0B7018BD4D7FC05C0C114E8
:1018E000D10439F404FF05C0D194C194D1088DE22C
:1018F00001C08BE2B70190E07BD480E36AE0C616BA
:10190000D1042CF08F5FFAE0CF1AD108F7CFB701DE
:1019100090E06ED4B701C601C0966AD436C1833652
:1019200031F0833779F0833509F054C020C0560177
:1019300072E0A70EB11CF6018081898301E010E0FE
:10194000640113C05601F2E0AF0EB11CF601C08075
:10195000D18026FF03C0612F70E002C06FEF7FEFE0
:10196000C6012B8B3AD48C012B892F7714C05601DA
:10197000F2E0AF0EB11CF601C080D18026FF03C09B
:10198000612F70E002C06FEF7FEFC6012B8B1AD47E
:101990008C012B892068722E23FD18C0852D90E0C4
:1019A0000817190798F4B70180E290E021D45A94FF
:1019B000F5CFF60177FC859177FE81916F01B70134
:1019C00090E016D451105A940150110901151105D7
:1019D00081F7DBC0843611F0893649F5560127FFBF
:1019E00009C0F4E0AF0EB11CF60160817181828103
:1019F00093810AC0F2E0AF0EB11CF60160817181E3
:101A0000882777FD8095982F022F0F7697FF08C0C3
:101A100090958095709561957F4F8F4F9F4F00688F
:101A20002AE030E0A40135D4C82EC8183DC0022FEA
:101A3000853721F40F7E2AE030E01DC0097F8F3604
:101A400091F018F4883559F0A9C0803719F088371B
:101A500011F0A4C0006104FF09C0046007C024FFA6
:101A600008C0066006C028E030E005C020E130E094
:101A700002C020E132E0560107FF09C0F4E0AF0EDA
:101A8000B11CF601608171818281938108C0F2E00E
:101A9000AF0EB11CF6016081718180E090E0A4017D
:101AA000F8D3C82EC8180F7706FF0BC0202F2E7F43
:101AB000C11650F404FF0AC002FD08C0202F2E7E7C
:101AC00005C0DC2C202F03C0DC2C01C0D12E24FF4C
:101AD0000DC0FE01EC0DF11D8081803311F4297ED3
:101AE00009C022FF06C0D394D39404C0822F867805
:101AF00009F0D39423FD12C020FF06C01C2DD5147D
:101B000018F4150D1D19D52CD51460F4B70180E219
:101B100090E02B8B6DD3D3942B89F6CFD51410F492
:101B20005D1801C0512C24FF11C0B70180E390E083
:101B30002B8B5ED32B8922FF16C021FF03C088E5C3
:101B400090E002C088E790E0B7010CC0822F867851
:101B500051F021FD02C080E201C08BE227FD8DE241
:101B6000B70190E045D3C11630F4B70180E390E0AF
:101B70003FD31150F8CFCA94F401EC0DF11D8081D0
:101B8000B70190E035D3C110F6CF552009F4DDCC74
:101B9000B70180E290E02CD35A94F7CFF701868109
:101BA000978102C08FEF9FEF6396E2E112C2505817
:101BB000BB27AA270ED048C139D130F03ED120F042
:101BC00031F49F3F11F41EF42EC10EF4E095E7FBB3
:101BD00024C1E92F4AD180F3BA176207730784073B
:101BE000950718F071F49EF562C10EF4E0950B2E86
:101BF000BA2FA02D0B01B90190010C01CA01A0015F
:101C00001124FF27591B99F0593F50F4503E68F1B9
:101C10001A16F040A22F232F342F4427585FF3CFFA
:101C2000469537952795A795F0405395C9F77EF4CB
:101C30001F16BA0B620B730B840BBAF09150A1F014
:101C4000FF0FBB1F661F771F881FC2F70EC0BA0F9A
:101C5000621F731F841F48F4879577956795B79522
:101C6000F7959E3F08F0B3CF9395880F08F099271A
:101C7000EE0F9795879508950CD0E6C0DED040F022
:101C8000D5D030F021F45F3F19F0C7C0511110C119
:101C9000CAC0EBD098F39923C9F35523B1F3951B30
:101CA000550BBB27AA2762177307840738F09F5F7D
:101CB0005F4F220F331F441FAA1FA9F333D00E2EEC
:101CC0003AF0E0E830D091505040E695001CCAF759
:101CD00029D0FE2F27D0660F771F881FBB1F26171E
:101CE00037074807AB07B0E809F0BB0B802DBF01F1
:101CF000FF2793585F4F2AF09E3F510568F08DC033
:101D0000D7C05F3FECF3983EDCF3869577956795F7
:101D1000B795F7959F5FC9F7880F911D96958795A1
:101D200097F90895E1E0660F771F881FBB1F6217C0
:101D300073078407BA0720F0621B730B840BBA0B7E
:101D4000EE1F88F7E095089598D088F09F5790F09F
:101D5000B92F9927B751A0F0D1F0660F771F881FD0
:101D6000991F1AF0BA95C9F712C0B13081F09FD00F
:101D7000B1E008959CC0672F782F8827B85F39F0AD
:101D8000B93FCCF3869577956795B395D9F73EF42F
:101D900090958095709561957F4F8F4F9F4F0895D7
:101DA000E89409C097FB3EF49095809570956195F5
:101DB0007F4F8F4F9F4F9923A9F0F92F96E9BB27AB
:101DC0009395F695879577956795B795F111F8CF27
:101DD000FAF4BB0F11F460FF1BC06F5F7F4F8F4F92
:101DE0009F4F16C0882311F096E911C0772321F088
:101DF0009EE8872F762F05C0662371F096E8862F20
:101E000070E060E02AF09A95660F771F881FDAF776
:101E1000880F9695879597F9089597F99F6780E8B9
:101E200070E060E008959FEF80EC089500240A942C
:101E30001616170618060906089500240A941216A5
:101E40001306140605060895092E0394000C11F4D8
:101E5000882352F0BB0F40F4BF2B11F460FF04C085
:101E60006F5F7F4F8F4F9F4F089557FD9058440FDE
:101E7000551F59F05F3F71F04795880F97FB991FE9
:101E800061F09F3F79F087950895121613061406A6
:101E9000551FF2CF4695F1DF08C016161706180633
:101EA000991FF1CF86957105610508940895E8940E
:101EB000BB2766277727CB0197F908950BD0C4CFAE
:101EC000B5DF28F0BADF18F0952309F0A6CFABCF25
:101ED0001124EECFCADFA0F3959FD1F3950F50E008
:101EE000551F629FF001729FBB27F00DB11D639FCC
:101EF000AA27F00DB11DAA1F649F6627B00DA11D72
:101F0000661F829F2227B00DA11D621F739FB00D17
:101F1000A11D621F839FA00D611D221F749F332787
:101F2000A00D611D231F849F600D211D822F762F20
:101F30006A2F11249F5750408AF0E1F088234AF01D
:101F4000EE0FFF1FBB1F661F771F881F9150504069
:101F5000A9F79E3F510570F060CFAACF5F3FECF329
:101F6000983EDCF3869577956795B795F795E79555
:101F70009F5FC1F7FE2B880F911D9695879597F966
:101F80000895991B79E004C0991F961708F0961BD5
:101F9000881F7A95C9F7809508952F923F924F92A6
:101FA0005F926F927F928F929F92AF92BF92CF92E9
:101FB000DF92EF92FF920F931F93CF93DF93CDB7F2
:101FC000DEB7CA1BDB0B0FB6F894DEBF0FBECDBF6A
:101FD00009942A88398848885F846E847D848C843B
:101FE0009B84AA84B984C884DF80EE80FD800C8144
:101FF0001B81AA81B981CE0FD11D0FB6F894DEBF27
:102000000FBECDBFED010895EE0FFF1F0590F491B7
:10201000E02D0994283008F027E03327DA01990FE2
:10202000311D87FD916000966105710539F43260BC
:102030002E5F3D9330E32A95E1F708959F3F30F0FE
:1020400080387105610509F03C5F3C5F3D9391303C
:1020500008F08068911DDF93CF931F930F93FF9239
:10206000EF92192F987F9695E92F96959695E90FFF
:10207000FF27EE5BFA4F99273327EE24FF24A701B1
:10208000E70105900894079428F4360FE71EF81E20
:10209000491F511D660F771F881F991F0694A1F7CE
:1020A0000590079428F4E70EF81E491F561FC11D1E
:1020B000770F881F991F661F0694A1F70590079454
:1020C00028F4F80E491F561FC71FD11D880F991FEE
:1020D000661F771F0694A1F70590079420F4490F17
:1020E000561FC71FD81F990F661F771F881F06949A
:1020F000A9F784911095177041F0D695C79557951B
:102100004795F794E7941A95C1F7E8EEF4E06894E0
:102110001590159135916591959105907FE2739594
:10212000E118F10A430B560BC90BD009C0F7E10CBB
:10213000F11E431F561FC91FD01D7EF4703311F4CA
:102140008A95E6CFE894015030F0080F0AF4002792
:10215000021708F4202F2395022F7A3328F079E311
:102160007D932A95E9F710C07D932A9589F6069408
:1021700097956795379517951794E118F10A430BD2
:10218000560BC90BD00998F023957E9173957A333D
:1021900008F070E37C932013B8F77E9170617D9313
:1021A00030F0839571E37D9370E32A95E1F7112474
:1021B000EF90FF900F911F91CF91DF91992787FDAD
:1021C00090950895FC010590615070400110D8F77A
:1021D000809590958E0F9F1F0895FC01615070406F
:1021E00001900110D8F7809590958E0F9F1F08954C
:1021F0000F931F93CF93DF93182F092FEB018B8140
:1022000081FD03C08FEF9FEF20C082FF10C04E8181
:102210005F812C813D81421753077CF4E881F9816D
:102220009F012F5F3F4F39832883108306C0E885C5
:10223000F985812F0995892B29F72E813F812F5F01
:102240003F4F3F832E83812F902FDF91CF911F919E
:102250000F910895AEE0B0E0EFE2F1E1ACCE0D8970
:102260001E8986E08C831A8309838FEF9FE79E8304
:102270008D83AE01475E5F4F6F89788DCE010196E9
:102280003AD9EF81F885E00FF11F10822E96E4E035
:10229000AECEFA01AA27283051F1203181F1E8941D
:1022A0006F936E7F6E5F7F4F8F4F9F4FAF4FB1E049
:1022B0003ED0B4E03CD0670F781F891F9A1FA11D44
:1022C000680F791F8A1F911DA11D6A0F711D811D45
:1022D000911DA11D20D009F468943F912AE0269F0A
:1022E00011243019305D3193DEF6CF010895462F69
:1022F0004770405D4193B3E00FD0C9F7F6CF462F4A
:102300004F70405D4A3318F0495D31FD40524193B2
:1023100002D0A9F7EACFB4E0A6959795879577956F
:102320006795BA95C9F700976105710508959B01F6
:10233000AC010A2E06945795479537952795BA957F
:10234000C9F7620F731F841F951FA01D0895F8948D
:02235000FFCFBD
:10235200404375723A20252D3464202020202530F8
:1023620032643A253032643A2530326400252D3405
:10237200642020202020252D342E3066202020208D
:04238200253464009A
:00000001FF
