:10000000EDC2000012C3000010C300000EC30000C8
:100010000CC300000AC3000008C3000006C30000B0
:1000200004C3000002C3000000C30000FEC20000C1
:10003000FCC20000FAC20000F8C20000F6C20000D4
:10004000F4C20000F3C20000F0C20000EEC20000E3
:10005000ECC20000EAC20000E8C20000E6C20000F4
:10006000E4C20000E2C20000E0C20000DEC2000004
:10007000DCC20000DAC20000D8C20000D6C2000014
:10008000D4C20000D2C20000D0C20000CEC2000024
:10009000CCC20000CAC20000C8C20000C6C2000034
:1000A000C4C20000C2C20000C0C2000000010405BA
:1000B0000607252423222120FFFFFFFFFFFFFFFF6C
:1000C000FFFFFFFFFFFFFFFFFFFFFFFFFFFFFFFF40
:1000D000FFFFFFFFFFFFFFFFFFFFFFFFFFFFFFFF30
:1000E000FFFFFFFFFFFFFFFFFFFFFFFFFFFFFFFF20
:1000F000FFFFFFFFFFFFFFFFFFFFFFFFFFFFFFFF10
:10010000FFFFFFFFFFFFFFFFFFFFFFFFFFFFFFFFFF
:10011000FFFFFFFFFFFFFFFFFF0701C1FFFFFFFF23
:10012000FFFFFFFFFFFFFFFFFFC7C7C7FFFFFFFF87
:10013000FFFFFFFFFFFFFFFFFFC7C7C7F9D6BEDB0B
:10014000ADDBB9FFFFFFFFFFFFC7C7C7F6AABD556D
:10015000555557FFFFFFFFFFFFC7C7C7F6AA7DD75B
:10016000555173FFFFFFFFFFFFC7C7C7F6AABCD7F4
:10017000555577FFFFFFFFFFFFC7C7C7F5AABDD7DC
:10018000555577FFFFFFFFFFFFC7C7C7FABABDD7B7
:1001900076B579FFFFFFFFFFFFE7C7CFFFFFFFFF48
:1001A000FFFFFFFFFFFFFFFFFFE3C78FFFFFFFFF23
:1001B000FFFFFFFFFFFFFFFFFFF1C71FFFFFFFFF75
:1001C000FFFFFFFFFFFFFFFFFFFC007FFBBAEB5BC2
:1001D0006D7CADDDDDC9FFFFFFFFC7FFF555555550
:1001E000457BAAAAA8BAFFFFFFFFC7FFF7555555E1
:1001F0006D4DAAAABD9AFFFFFFFFC7FFF7555555E2
:100200006D7EA99ABDBAFFFFFFFFC7FFF555555593
:100210006D7EABBABDBAFFFFFFFFC7FFFBB75DB591
:1002200076F9DBBDBEC9FFFFFFFFC7FFFFFFFFFF82
:10023000FDFFFFFFFFFFFFFFFFFF01FFFFFFFFFFCE
:10024000FBFFFFFFFFFFFFFFFFFFFFFFFFFFFFFFC2
:10025000FFFFFFFFFFFFFFFFFFFFFFFFFFFFFFFFAE
:10026000FFFFFFFFFFFFFFFFFFFFFFFFFFFFFFFF9E
:10027000FFFFFFFFFFFFFFFFFFFFFFFFFFFFFFFF8E
:10028000FFFFFFFFFFFFFFFFFFFFFFFFFFFFFFFF7E
:10029000FFFFFFFFFFFFFFFFFFFFFFFFFFFFFFFF6E
:1002A000FFFFFFFFFFFFFFFFFFFFFFFFFFFFFFFF5E
:1002B000FFFFFFFFFFFFFFFF000000000000000046
:1002C000002F000000000700070000147F147F14B7
:1002D00000242A7F2A12006264081323003649553D
:1002E000225000000503000000001C224100000015
:1002F00041221C000014083E08140008083E0808AB
:10030000000000A060000008080808080000606005
:100310000000002010080402003E5149453E000044
:10032000427F4000004261514946002141454B3126
:10033000001814127F10002745454539003C4A49F2
:100340004930000171090503003649494936000664
:100350004949291E000036360000000056360000CC
:100360000008142241000014141414140000412247
:10037000140800020151090600324959513E007C1F
:100380001211127C007F49494936003E4141412209
:10039000007F4141221C007F49494941007F0909F2
:1003A0000901003E4149497A007F0808087F0000A2
:1003B000417F4100002040413F01007F081422415D
:1003C000007F40404040007F020C027F007F040815
:1003D000107F003E4141413E007F09090906003E71
:1003E0004151215E007F091929460046494949319A
:1003F0000001017F0101003F4040403F001F2040BD
:10040000201F003F4038403F00631408146300077A
:100410000870080700615149454300007F414100D1
:1004200000552A552A55000041417F000004020171
:10043000020400404040404000000102040000204F
:1004400054545478007F484444380038444444208D
:1004500000384444487F00385454541800087E093A
:1004600001020018A4A4A47C007F08040478000002
:10047000447D4000004080847D00007F10284400BF
:100480000000417F4000007C04180478007C0804D0
:10049000047800384444443800FC2424241800180C
:1004A000242418FC007C08040408004854545420F8
:1004B00000043F444020003C4040207C001C204081
:1004C000201C003C4030403C004428102844001CC4
:1004D000A0A0A07C004464544C44141414141414BC
:1004E00000407A10F35A00A0724E18090010A5D4EB
:1004F000E80000E87648170000E40B54020000CA48
:100500009A3B000000E1F50500008096980000008D
:1005100040420F000000A0860100000010270000EC
:100520000000E803000000006400000000000A0072
:10053000000000000100000000002C76D888DC6775
:100540004F0823DFC1DFAE59E1B1B796E5E3E453CD
:10055000C63AE651997696E8E6C28426EB898C9BEA
:1005600062ED407C6FFCEFBC9C9F40F2BAA56FA58A
:10057000F490055A2AF75C936B6CF9676DC11BFC0C
:10058000E0E40D47FEF520E6B500D0ED902E030027
:10059000943577050080841E080000204E0A000074
:1005A00000C80C333333330F986E12831141EF8D33
:1005B0002114893BE65516CFFEE6DB18D1844B3873
:1005C0001BF77C1D901DA4BBE424203284725E22A4
:1005D0008100C9F124ECA1E53D274C0911241FBE7F
:1005E000CFEFDAE0DEBFCDBF11E0A0E0B1E0E8E898
:1005F000F1E202C005900D92A632B107D9F716E0DC
:10060000A6E2B1E001C01D92AF37B107E1F715E0F6
:10061000CCEDD5E004C02297FE010E94470BCA3DF5
:10062000D107C9F70AD60C94C210EACC1F920F92D8
:100630000FB60F9211243F924F925F926F927F926A
:100640008F929F92AF92BF92CF92DF92EF92FF92E2
:100650000F931F932F933F934F935F936F937F93CA
:100660008F939F93AF93BF93CF93DF93EF93FF93BA
:1006700083E0D8D590937E0680937D06C0913C019F
:10068000EC2FF0E0EE0FFF1FEB51FE4F91838083C4
:10069000CF5FCC3309F03EC005EE11E0D12CE12C48
:1006A000F12CD0E0F801619171918F0180E090E030
:1006B000EFD69B01AC016D2D7E2D8F2D9D2FF0D59A
:1006C000D62EE72EF82ED92FF2E00D351F0751F761
:1006D000462F572F682F792F4093360150933701BB
:1006E0006093380170933901C0903B010C2D10E0EC
:1006F000000F111F03591E4F20E030E040E752E485
:100700006D2D7E2D31D698D6F80171836083C39408
:10071000C0923B01D0913B01DC33C1F50DE611E005
:10072000C12CD12CE12CF12CF801619171918F0138
:1007300080E090E0ADD69B01AC01B601C701B0D519
:100740006B017C01F1E0053E1F0771F7AB01BC01B5
:10075000409336015093370160933801709339010B
:10076000B0903A010B2D10E0000F111F035C1E4FDB
:1007700020E030E040E752E4B601C701F5D55CD691
:10078000F80171836083B394B0923A012CE38C2F0B
:10079000622F6FD7692E90933C0180913A0168E1F6
:1007A00068D7492E90933A018D2F622F62D7592E28
:1007B00090933B010DE311E0A12CB12CE12CF12C25
:1007C000C0E0D0E0C42CD12CCC15DD0584F4F801B8
:1007D000619171918F0180E090E05AD69B01AC014C
:1007E000B501C7015DD521965B017C01EDCFC50147
:1007F000D7018093320190933301A0933401B093D9
:1008000035010DE611E0812C912CA12CB12CC0E01A
:10081000D0E0E52CF12CCE15DF0584F4F8016191D0
:1008200071918F0180E090E033D69B01AC01B4015F
:10083000C50136D521964B015C01EDCFC401D50130
:1008400080932E0190932F01A0933001B09331013A
:1008500085EEA82E81E0B82E712C812C912C312CA4
:10086000C0E0D0E0062D10E0C017D107ACF4F501D0
:10087000219131915F01B90180E090E009D69B019F
:10088000AC01672D782D892D932D0AD52196762ED2
:10089000872E982E392EE8CF872D982DA92DB32D90
:1008A00080932A0190932B01A0932C01B0932D01EA
:1008B000442009F44BC0B601882777FD8095982F16
:1008C000E9D59B01AC0160E070E08CE692E44CD588
:1008D00020E030E040E752E447D59B01AC01609155
:1008E00032017091330180913401909135015ED6CF
:1008F00060933201709333018093340190933501FA
:1009000029E838E848E85CE360912E0170912F01F6
:10091000809130019091310149D660932E017093FE
:100920002F01809330019093310129E838E848E89D
:100930005CE3672D782D892D932D38D660932A019D
:1009400070932B0180932C0190932D01552009F475
:100950004EC02CEB3BEB4BE75FE3609132017091B3
:100960003301809134019091350120D6609332019A
:10097000709333018093340190933501B701882738
:1009800077FD8095982F86D59B01AC0160E070E0E3
:100990008CE692E4E9D420E030E040E752E4E4D48D
:1009A0009B01AC0160912E0170912F01809130016B
:1009B00090913101FBD560932E0170932F018093AC
:1009C00030019093310120E030E0A90160912A01CB
:1009D00070912B0180912C0190912D01E7D56093AE
:1009E0002A0170932B0180932C0190932D01662096
:1009F00001F1B801882777FD8095982F4BD59B0191
:100A0000AC0160E070E080E89FE3AED49B01AC01F4
:100A100060912A0170912B0180912C0190912D0100
:100A2000C5D560932A0170932B0180932C0190937C
:100A30002D0120912E0130912F01409130015091D4
:100A400031016091320170913301809134019091B4
:100A5000350126D420912A0130912B0140912C019F
:100A600050912D011DD4609326017093270180932E
:100A70002801909329018DE592E054D320E040E0D5
:100A800061E071E08DE592E021D24AE050E068E754
:100A900076E080917D0690917E061DD680913C0186
:100AA0001F928F93CBE0D1E0DF93CF9383E796E063
:100AB0009F938F932FD680913B011F928F93DF934B
:100AC000CF938EE696E09F938F9324D680913A0140
:100AD0001F928F93DF93CF9389E696E09F938F9336
:100AE00019D660912601709127018091280190917B
:100AF00029010FE516E020E045E0CDD520E04CE3EC
:100B000068E776E08DE592E0E1D128E040E060E141
:100B100071E08DE592E0DAD128E040E069E676E028
:100B20008DE592E0D3D128E042E16EE676E08DE5F6
:100B300092E0CCD128E044E263E776E08DE592E0F4
:100B4000C5D120E140E0B8018DE592E0BFD18DE54F
:100B500092E0FFD2EDB7FEB772960FB6F894FEBFE3
:100B60000FBEEDBFFF91EF91DF91CF91BF91AF919C
:100B70009F918F917F916F915F914F913F912F91B5
:100B80001F910F91FF90EF90DF90CF90BF90AF90AB
:100B90009F908F907F906F905F904F903F900F90BD
:100BA0000FBE0F901F9018951F93CF93DF93EC010A
:100BB000162FDBD260E0CE01FED2612FCE01FBD238
:100BC000CE01DF91CF911F9109C3CF93DF93EC0149
:100BD000C3D268E7CE01C1D26EEACE01E5DF65ED92
:100BE000CE01E2DF60E8CE01DFDF68EACE01DCDFC4
:100BF0006FE1CE01D9DF63EDCE01D6DF60E0CE013B
:100C0000D3DF60E4CE01D0DF6DE8CE01CDDF64E15B
:100C1000CE01CADF60E2CE01C7DF60E0CE01C4DFF3
:100C200061EACE01C1DF68ECCE01BEDF6AEDCE0124
:100C3000BBDF62E0CE01B8DF61E8CE01B5DF6FE86F
:100C4000CE01B2DF69EDCE01AFDF61EFCE01ACDFE7
:100C50006BEDCE01A9DF60E4CE01A6DF64EACE0130
:100C6000A3DF66EACE01A0DF6EE2CE019DDF6FEA70
:100C7000CE01DF91CF9198CF662311F067EA01C0D2
:100C800066EA92CFAF92BF92DF92EF92FF920F93FC
:100C90001F93CF93DF931F92CDB7DEB75C01F62E83
:100CA00061E2798381DF60E0C5017EDF6FE7C50126
:100CB0007BDF62E2C50178DF60E0C50175DF67E0D8
:100CC000C50172DF0F2D7981172F80E4D82EC50161
:100CD0004CD260E4C5016FD2E12CF12CF801EE0D8D
:100CE000FF1D6081C50167D28FEFE81AF80AE0E1C5
:100CF000EE16F10499F7C50171D2DA94005F1F4F27
:100D0000D110E5CF0F90DF91CF911F910F91FF9000
:100D1000EF90DF90BF90AF90089567FD2EC04032F6
:100D200060F5342F369536953695E62FF0E047700E
:100D3000222389F020E8329FE00DF11D1124E80FF5
:100D4000F91F81E090E0042E01C0880F0A94EAF7B1
:100D50009081982B11C020E8329FE00DF11D1124E5
:100D6000E80FF91F81E090E0042E01C0880F0A947B
:100D7000EAF7809590819823908308955F926F920F
:100D80007F928F929F92AF92BF92CF92DF92EF921B
:100D9000FF920F931F93CF93DF935C014B01542E6F
:100DA000C22FD0E0279683E0D595C7958A95E1F7C5
:100DB0005E0CC12CD12CF22EF00E90E8692E712C15
:100DC000E51441F1102F812F801B1F15F9F0982F8A
:100DD000969596959695F601E90FF11DE80DF91D8A
:100DE000E491F0E08770930102C0359527958A95CC
:100DF000E2F7E223F323EF2B11F021E001C020E022
:100E00004E2D612FC50189DF1F5FDDCFE394CC0E2E
:100E1000DD1ED6CFDF91CF911F910F91FF90EF9004
:100E2000DF90CF90BF90AF909F908F907F906F900A
:100E30005F9008957F928F929F92AF92BF92CF92D0
:100E4000DF92EF92FF920F931F93CF93DF936C018A
:100E5000842E722E605226E0629F7001112400E001
:100E600010E0C70188549D4F7C01F701E00FF11F8E
:100E7000A490C0E0D0E0B12C982C900E4C2F470DE0
:100E8000C5010C2E02C0959587950A94E2F780FF64
:100E900002C021E001C020E0692DC6013EDF21969D
:100EA000C830D10559F70F5F1F4F06301105E9F61D
:100EB000DF91CF911F910F91FF90EF90DF90CF9036
:100EC000BF90AF909F908F907F900895CF92DF92C8
:100ED000FF920F931F93CF93DF931F92CDB7DEB78F
:100EE0008C01342FF22E6B01F60161916F016623A4
:100EF00041F02F2D432FC80139839CDF39813A5FA0
:100F0000F3CF0F90DF91CF911F910F91FF90DF9062
:100F1000CF900895AF92BF92CF92DF92EF92FF925F
:100F20000F931F93CF93DF938C017B01C0E0D0E040
:100F3000A12C20E8C22ED12CB12C8B2D8695869524
:100F40008695FE01E80FF11DEE0DFF1DE491F0E026
:100F50008B2D8770960102C0359527958A95E2F70B
:100F6000E223F323EF2B11F021E001C020E04A2D12
:100F70006B2DC801D2DEB39430E8B312DECFA39458
:100F8000609680E4A812D8CFDF91CF911F910F9186
:100F9000FF90EF90DF90CF90BF90AF90089567FDE6
:100FA00019C04032B8F4E42FE695E695E69520E8BE
:100FB000E29FF0011124E60FF11DE80FF91F4770C1
:100FC00081E090E0042E01C0880F0A94EAF7908136
:100FD000982B90830895EF92FF920F931F93CF93D6
:100FE000DF931F92CDB7DEB77C01062F240F142F9D
:100FF000121741F0412F602FC7012983D0DF1F5FF7
:101000002981F6CF0F90DF91CF911F910F91FF9023
:10101000EF900895EF92FF920F931F93CF93DF937A
:101020001F92CDB7DEB77C01042F260F162F1217A3
:1010300041F0402F612FC7012983B1DF1F5F298154
:10104000F6CF0F90DF91CF911F910F91FF90EF900E
:101050000895CF92DF92EF92FF920F931F93CF9359
:10106000DF93EC01F62E142FC22EE22EE61AE39443
:10107000D02ED41A2E2DCEDF2E2D402F6F2DCE0147
:10108000C9DF2D2D412F6F2DCE01A5DF2D2D412F35
:101090006C2DCE01DF91CF911F910F91FF90EF90BA
:1010A000DF90CF9098CF7F928F929F92AF92BF9216
:1010B000CF92DF92EF92FF920F931F93CF93DF9324
:1010C0006C01962E842EE11002C0C3DF1DC02F5F7D
:1010D000261B041BC0E0D0E0A22EB12C10E0CA15E4
:1010E000DB0594F4E12CF12C7C2E790C0E151F05F8
:1010F0004CF0482D4E0D672DC60151DF8FEFE81AD9
:10110000F80AF4CF2196EBCFDF91CF911F910F9189
:10111000FF90EF90DF90CF90BF90AF909F908F9017
:101120007F90089520E030E0FC011192CF012F5F05
:101130003F4F2115F2E03F07B9F70895CF93DF93B2
:10114000EC019C5F42DDCE01DF91CF91EBCF9C5F44
:1011500093CDBC019C5F96CD0895FC0160831092F5
:10116000B90088E48093B8000895FC0184EA809374
:10117000BC008091BC0087FFFCCF8091B900887FC4
:101180008183883021F0803111F081E008958081E1
:101190008093BB0084E88093BC008091BC0087FFF3
:1011A000FCCF8091B900887F8183883111F0803431
:1011B00061F780E008956093BB0024E82093BC00B1
:1011C0002091BC0027FFFCCF2091B900287FFC01B3
:1011D000218381E0283209F480E0089584E9809336
:1011E000BC008091BC0084FDFCCF089596E89093EC
:1011F0007A00982F9072906890937B008F719091F5
:101200000001892B80937C0086EC80937A0080918A
:101210007A0086FDFCCF809178002091790090E0E3
:10122000922B08958C3030F4E82FF0E0E455FF4F16
:101230008491DCCF80E090E00895E12C00E020E88C
:1012400040E468EB70E08DE592E098DD8DE592E09A
:1012500080DF569A5E9A10927E0610927D0610925A
:101260003C0110923B0110923A01F89410928500D3
:1012700010928400109280008CE080938100809115
:101280006F00826080936F0081E19AE790938900FC
:10129000809388007894FFCF8DE592E04FCF50582F
:1012A000BB27AA270ED048C139D130F03ED120F05B
:1012B00031F49F3F11F41EF42EC10EF4E095E7FBCC
:1012C00024C1E92F4AD180F3BA1762077307840754
:1012D000950718F071F49EF562C10EF4E0950B2E9F
:1012E000BA2FA02D0B01B90190010C01CA01A00178
:1012F0001124FF27591B99F0593F50F4503E68F1D3
:101300001A16F040A22F232F342F4427585FF3CF13
:10131000469537952795A795F0405395C9F77EF4E4
:101320001F16BA0B620B730B840BBAF09150A1F02D
:10133000FF0FBB1F661F771F881FC2F70EC0BA0FB3
:10134000621F731F841F48F4879577956795B7953B
:10135000F7959E3F08F0B3CF9395880F08F0992733
:10136000EE0F9795879508950CD0E6C0DED040F03B
:10137000D5D030F021F45F3F19F0C7C0511110C132
:10138000CAC0EBD098F39923C9F35523B1F3951B49
:10139000550BBB27AA2762177307840738F09F5F96
:1013A0005F4F220F331F441FAA1FA9F333D00E2E05
:1013B0003AF0E0E830D091505040E695001CCAF772
:1013C00029D0FE2F27D0660F771F881FBB1F261737
:1013D00037074807AB07B0E809F0BB0B802DBF010A
:1013E000FF2793585F4F2AF09E3F510568F08DC04C
:1013F000D7C05F3FECF3983EDCF386957795679511
:10140000B795F7959F5FC9F7880F911D96958795BA
:1014100097F90895E1E0660F771F881FBB1F6217D9
:1014200073078407BA0720F0621B730B840BBA0B97
:10143000EE1F88F7E095089598D088F09F5790F0B8
:10144000B92F9927B751A0F0D1F0660F771F881FE9
:10145000991F1AF0BA95C9F712C0B13081F09FD028
:10146000B1E008959CC0672F782F8827B85F39F0C6
:10147000B93FCCF3869577956795B395D9F73EF448
:1014800090958095709561957F4F8F4F9F4F0895F0
:10149000E89409C097FB3EF490958095709561950E
:1014A0007F4F8F4F9F4F9923A9F0F92F96E9BB27C4
:1014B0009395F695879577956795B795F111F8CF40
:1014C000FAF4BB0F11F460FF1BC06F5F7F4F8F4FAB
:1014D0009F4F16C0882311F096E911C0772321F0A1
:1014E0009EE8872F762F05C0662371F096E8862F39
:1014F00070E060E02AF09A95660F771F881FDAF790
:10150000880F9695879597F9089597F99F6780E8D2
:1015100070E060E008959FEF80EC089500240A9445
:101520001616170618060906089500240A941216BE
:101530001306140605060895092E0394000C11F4F1
:10154000882352F0BB0F40F4BF2B11F460FF04C09E
:101550006F5F7F4F8F4F9F4F089557FD9058440FF7
:10156000551F59F05F3F71F04795880F97FB991F02
:1015700061F09F3F79F087950895121613061406BF
:10158000551FF2CF4695F1DF08C01616170618064C
:10159000991FF1CF86957105610508940895E89427
:1015A000BB2766277727CB0197F908950BD0C4CFC7
:1015B000B5DF28F0BADF18F0952309F0A6CFABCF3E
:1015C0001124EECFCADFA0F3959FD1F3950F50E021
:1015D000551F629FF001729FBB27F00DB11D639FE5
:1015E000AA27F00DB11DAA1F649F6627B00DA11D8B
:1015F000661F829F2227B00DA11D621F739FB00D31
:10160000A11D621F839FA00D611D221F749F3327A0
:10161000A00D611D231F849F600D211D822F762F39
:101620006A2F11249F5750408AF0E1F088234AF036
:10163000EE0FFF1FBB1F661F771F881F9150504082
:10164000A9F79E3F510570F060CFAACF5F3FECF342
:10165000983EDCF3869577956795B795F795E7956E
:101660009F5FC1F7FE2B880F911D9695879597F97F
:101670000895991B79E004C0991F961708F0961BEE
:10168000881F7A95C9F780950895EE0FFF1F059082
:10169000F491E02D0994EF920F931F93CF93DF9372
:1016A000E80147FF02C034E101C034E0E42FFF2726
:1016B000E7FDF095F7FF03C0F195E195F109E32E01
:1016C000022F2E2FAE0108D2CE01DF91CF911F91B4
:1016D0000F91EF900895FB019F01E8944230BCF018
:1016E0004532ACF44A3029F497FB1EF4909581956D
:1016F0009F4F642F7727FBD4805D8A330CF0895D80
:101700008193CB010097A9F716F45DE25193108203
:10171000C9014DC4AEE0B0E0EFE8FBE00AC50D89B9
:101720001E8986E08C831A8309838FEF9FE79E834F
:101730008D83AE01475E5F4F6F89788DCE01019634
:1017400008D0EF81F885E00FF11F10822E96E4E0BB
:101750000CC5ACE0B0E0EEEAFBE0DDC47C016B015F
:101760008A01FC0117821682838181FFB0C1CE01FC
:1017700001964C01F7019381F60193FD859193FF4A
:1017800081916F01882309F49EC1853239F493FD5C
:10179000859193FF81916F01853221F4B70190E02B
:1017A00016D4E8CF512C312C20E02032A0F48B321B
:1017B00069F030F4803259F0833269F420612CC032
:1017C0008D3239F0803339F4216026C022602460E4
:1017D00023C0286021C027FD27C030ED380F3A30E4
:1017E00078F426FF06C0FAE05F9E300D1124532ED8
:1017F00013C08AE0389E300D1124332E20620CC0B5
:101800008E3221F426FD5FC1206406C08C3611F4AF
:10181000206802C0883641F4F60193FD859193FF5C
:1018200081916F018111C1CF982F9F7D9554933085
:1018300028F40C5F1F4FFFE3F9830DC0833631F0AE
:10184000833771F0833509F057C021C0F8018081DA
:1018500089830E5F1F4F44244394512C540114C0BC
:101860003801F2E06F0E711CF801A080B18026FFF4
:1018700003C0652D70E002C06FEF7FEFC5012C87BC
:101880008BD32C0183012C852F77222E16C0380193
:10189000F2E06F0E711CF801A080B18026FF03C03A
:1018A000652D70E002C06FEF7FEFC5012C8769D313
:1018B0002C012C852068222E830123FC19C0832D46
:1018C00090E048165906A0F4B70180E290E07FD37B
:1018D0003A94F5CFF50127FC859127FE81915F01B0
:1018E000B70190E074D331103A94F1E04F1A5108E7
:1018F0004114510479F7DEC0843611F0893631F590
:10190000F80127FF07C060817181828193810C5F9C
:101910001F4F08C060817181882777FD8095982FBF
:101920000E5F1F4F2F76B22E97FF09C090958095BE
:10193000709561957F4F8F4F9F4F2068B22E2AE0A0
:1019400030E0A40176D3A82EA81843C0853729F427
:101950002F7EB22E2AE030E025C0F22FF97FBF2E75
:101960008F36C1F018F4883579F0ADC0803719F0A2
:10197000883721F0A8C02F2F2061B22EB4FE0DC0F1
:101980008B2D8460B82E09C024FF0AC09F2F96605B
:10199000B92E06C028E030E005C020E130E002C0EA
:1019A00020E132E0F801B7FE07C0608171818281D9
:1019B00093810C5F1F4F06C06081718180E090E0D1
:1019C0000E5F1F4FA40135D3A82EA818FB2DFF775B
:1019D000BF2EB6FE0BC02B2D2E7FA51450F4B4FEE7
:1019E0000AC0B2FC08C02B2D2E7E05C07A2C2B2DF0
:1019F00003C07A2C01C0752C24FF0DC0FE01EA0D36
:101A0000F11D8081803311F4297E09C022FF06C0B8
:101A10007394739404C0822F867809F0739423FD25
:101A200012C020FF06C05A2C731418F4530C571818
:101A3000732C731460F4B70180E290E02C87C7D256
:101A400073942C85F6CF731410F4371801C0312C21
:101A500024FF11C0B70180E390E02C87B8D22C8519
:101A600022FF16C021FF03C088E590E002C088E78E
:101A700090E0B7010CC0822F867851F021FD02C0A2
:101A800080E201C08BE227FD8DE2B70190E09FD29A
:101A9000A51430F4B70180E390E099D25A94F8CFBE
:101AA000AA94F401EA0DF11D8081B70190E08FD274
:101AB000A110F6CF332009F45DCEB70180E290E0AB
:101AC00086D23A94F7CFF7018681978102C08FEFD3
:101AD0009FEF2C96E2E13BC36F927F929F92AF9271
:101AE000BF92CF92DF92EF92FF920F931F93CF930B
:101AF000DF93CDB7DEB729970FB6F894DEBF0FBEE0
:101B0000CDBF6A01B22E102F0C3320F4FF24F394C2
:101B1000F00E02C04CE3F42E0F2D27E0AE014F5F14
:101B20005F4F57D17981272F2970213031F0E1FCA7
:101B300006C0E0FC06C060E005C06DE203C06BE2D9
:101B400001C060E2AE2DA07173FF36C0662311F0B4
:101B500084E001C083E08B1510F4B81A01C0B12CE9
:101B6000A1110BC0F6018B2D90E2882319F09193FF
:101B70008150FBCFCB0CD11CB12C662331F0F60188
:101B8000608396012F5F3F4F6901C6010396E2FE15
:101B900005C02EE4F601208331E404C02EE6F601F0
:101BA000208331E631832283FC012B2D30E2222376
:101BB000F1F131932150FBCF72FF40C0662311F049
:101BC00084E001C083E08B1510F4B81A01C0B12C79
:101BD000A1110BC0F6018B2D90E2882319F091938F
:101BE0008150FBCFCB0CD11CB12C662331F0F60118
:101BF000608396012F5F3F4F6901C6010396E2FEA5
:101C000007C029E4F60120832EE4218326E406C0E0
:101C100029E6F60120832EE6218326E62283FC01B5
:101C20002B2D30E2222319F031932150FBCFFC0100
:101C3000EB0DF11D10828EEF9FEFB7C0B1E0611187
:101C400001C0B0E04B2F50E01816190624F49C0197
:101C50002F5F3F4F02C021E030E0240F351F1123DA
:101C600029F0412F50E04F5F5F4F02C040E050E04D
:101C7000420F531F2B2D30E04217530714F4B41AB0
:101C800001C0B12C2E2D287159F4F6012B2D30E214
:101C9000222319F031932150FBCFCB0CD11CB12C56
:101CA000BB2331F0F601608396012F5F3F4F69013E
:101CB000A1110BC0F6012B2D30E3222319F0319333
:101CC0002150FBCFCB0CD11CB12CF80E0A81372F41
:101CD0003071A32E74FF03C0013309F4FA941F146A
:101CE0002CF42F2D293018F028E001C021E0682FB6
:101CF000392F97FF02C060E030E0462F532F612C50
:101D0000712C3EE2932EBC01621B71099B01DC0128
:101D1000A41BB50BE1E0F0E0EC0FFD1FAE0FBF1F01
:101D2000E12EF12CF194E194F1084F3FFFEF5F07B2
:101D300031F4F6019082B6016F5F7F4F6B0184171B
:101D400095074CF02417350734F4BD01660D771D57
:101D5000FB01118101C010E341505109FFEF6F1ADF
:101D60007F0AB6016F5F7F4F4E155F0524F0F601C5
:101D700010836B01DACF4817590739F4063320F482
:101D8000053319F4A11001C011E3F6011083FB0122
:101D90008B2D90E2882319F091938150FBCFFB01AA
:101DA000EB0DF11D108280E090E029960FB6F894BB
:101DB000DEBF0FBECDBFDF91CF911F910F91FF907E
:101DC000EF90DF90CF90BF90AF909F907F906F90FB
:101DD0000895283008F027E03327DA01990F311DE4
:101DE00087FD916000966105710539F432602E5FC0
:101DF0003D9330E32A95E1F708959F3F30F0803816
:101E00007105610509F03C5F3C5F3D93913008F03E
:101E10008068911DDF93CF931F930F93FF92EF92F2
:101E2000192F987F9695E92F96959695E90FFF279C
:101E3000E65CFA4F99273327EE24FF24A701E70138
:101E400005900894079428F4360FE71EF81E491FE2
:101E5000511D660F771F881F991F0694A1F70590E3
:101E6000079428F4E70EF81E491F561FC11D770F6F
:101E7000881F991F661F0694A1F70590079428F400
:101E8000F80E491F561FC71FD11D880F991F661FC7
:101E9000771F0694A1F70590079420F4490F561F69
:101EA000C71FD81F990F661F771F881F0694A9F7B1
:101EB00084911095177041F0D695C7955795479521
:101EC000F794E7941A95C1F7E0EEF4E06894159062
:101ED000159135916591959105907FE27395E11883
:101EE000F10A430B560BC90BD009C0F7E10CF11EE8
:101EF000431F561FC91FD01D7EF4703311F48A95FD
:101F0000E6CFE894015030F0080F0AF400270217DA
:101F100008F4202F2395022F7A3328F079E37D935C
:101F20002A95E9F710C07D932A9589F6069497952E
:101F30006795379517951794E118F10A430B560BDF
:101F4000C90BD00998F023957E9173957A3308F0E8
:101F500070E37C932013B8F77E9170617D9330F02D
:101F6000839571E37D9370E32A95E1F71124EF9057
:101F7000FF900F911F91CF91DF91992787FD909549
:101F80000895FC010590615070400110D8F78095CC
:101F900090958E0F9F1F0895FC0161507040019035
:101FA0000110D8F7809590958E0F9F1F0895DC0142
:101FB000FC01672F71917723E1F7329704C07C9180
:101FC0006D9370836291AE17BF07C8F308950F93A6
:101FD0001F93CF93DF93182F092FEB018B8181FD86
:101FE00003C08FEF9FEF20C082FF10C04E815F8142
:101FF0002C813D81421753077CF4E881F9819F01D0
:102000002F5F3F4F39832883108306C0E885F98509
:10201000812F0995892B29F72E813F812F5F3F4F13
:102020003F832E83812F902FDF91CF911F910F91AE
:102030000895FA01AA27283051F1203181F1E8945E
:102040006F936E7F6E5F7F4F8F4F9F4FAF4FB1E0AB
:102050003ED0B4E03CD0670F781F891F9A1FA11DA6
:10206000680F791F8A1F911DA11D6A0F711D811DA7
:10207000911DA11D20D009F468943F912AE0269F6C
:1020800011243019305D3193DEF6CF010895462FCB
:102090004770405D4193B3E00FD0C9F7F6CF462FAC
:1020A0004F70405D4A3318F0495D31FD4052419315
:1020B00002D0A9F7EACFB4E0A695979587957795D2
:1020C0006795BA95C9F700976105710508959B0159
:1020D000AC010A2E06945795479537952795BA95E2
:1020E000C9F7620F731F841F951FA01D0895AA1BB7
:1020F000BB1B51E107C0AA1FBB1FA617B70710F0F3
:10210000A61BB70B881F991F5A95A9F78095909524
:10211000BC01CD0108952F923F924F925F926F9232
:102120007F928F929F92AF92BF92CF92DF92EF9267
:10213000FF920F931F93CF93DF93CDB7DEB7CA1BE8
:10214000DB0B0FB6F894DEBF0FBECDBF09942A8813
:10215000398848885F846E847D848C849B84AA84BB
:10216000B984C884DF80EE80FD800C811B81AA8148
:10217000B981CE0FD11D0FB6F894DEBF0FBECDBF13
:08218000ED010895F894FFCF72
:102188004053756E6C696768743A00253032640094
:1021980020203A20203A20202073696E636520733E
:0621A80074617274000076
:00000001FF
